:020000040800F2
:1000000000000220611E0008310A0008330A0008BF
:10001000350A0008370A0008390A00080000000005
:100020000000000000000000000000003B0A000883
:100030003D0A0008000000003F0A0008410A0008CD
:10004000B11E0008B11E0008B11E0008B11E000854
:10005000B11E0008B11E0008B11E0008B11E000844
:10006000B11E0008B11E0008B11E0008B11E000834
:10007000B11E0008B11E0008B11E0008B11E000824
:10008000B11E0008B11E0008B11E0008B11E000814
:10009000B11E0008B11E0008B11E0008B11E000804
:1000A000B11E0008B11E0008B11E0008B11E0008F4
:1000B000B11E0008B11E0008B11E0008B11E0008E4
:1000C000B11E0008B11E0008B11E0008B11E0008D4
:1000D000B11E0008B11E0008B11E0008B11E0008C4
:1000E000B11E0008B11E0008B11E0008B11E0008B4
:1000F000B11E0008B11E0008B11E0008B11E0008A4
:10010000B11E0008B11E0008B11E0008B11E000893
:10011000B11E0008B11E0008B11E0008B11E000883
:10012000B11E0008B11E0008490A0008B11E0008EF
:10013000B11E0008B11E0008B11E0008B11E000863
:10014000B11E0008B11E0008B11E0008B11E000853
:10015000B11E0008B11E0008590A0008B11E0008AF
:10016000B11E0008B11E0008B11E0008B11E000833
:10017000B11E0008B11E0008B11E000800000000FA
:08018000B11E0008B11E0008C9
:10018800044B05481B1A062B02D9044B03B1184728
:10019800704700BF0F0000200C0000200000000086
:1001A80005490648091A891001EBD171491002D096
:1001B800034B03B1184770470C0000200C000020C7
:1001C8000000000010B5064C237843B9FFF7D8FFAC
:1001D800044B13B10448AFF300800123237010BD12
:1001E8000C00002000000000B41E000808B5084BF1
:1001F8001BB108490848AFF300800848036813B9E1
:10020800BDE80840CCE7064B002BF9D09847F7E744
:100218000000000010000020B41E00080C000020A0
:100228000000000070B50F4E0F4D761BB61018BFBA
:10023800002405D0013455F8043B9847A642F9D16B
:100248000A4E0B4D761B01F031FEB61018BF002484
:1002580006D0013455F8043B9847A642F9D170BD41
:1002680070BD00BF341F0008341F0008381F000885
:10027800341F000870B4860746D0541E002A41D0A7
:10028800CAB2034602E014F1FF343BD303F8012B52
:100298009D07F8D1032C2ED9CDB245EA05250F2CA0
:1002A80045EA054519D903F110022646103E0F2EDE
:1002B80042F8105C42F80C5C42F8085C42F8045CB6
:1002C80002F11002F2D8A4F1100222F00F0204F099
:1002D8000F041032032C13440DD91E462246043A4B
:1002E800032A46F8045BFAD8221F22F003020432DC
:1002F800134404F003042CB1C9B21C4403F8011BD5
:100308009C42FBD170BC704714460346C2E700BF4D
:1003180053B94AB9002908BF00281CBF4FF0FF3164
:100328004FF0FF3000F07AB9ADF1080C6DE904CE5A
:1003380000F006F8DDF804E0DDE9022304B07047B8
:100348002DE9F0478C460D460446089E002B51D1F6
:100358008A4217466DD9B2FA82FEBEF1000F0BD061
:10036800CEF1200C01FA0EF520FA0CFC02FA0EF779
:100378004CEA050C00FA0EF44FEA174A250CBCFBB0
:10038800FAF81FFA87F90AFB18CC45EA0C4508FB6E
:1003980009F3AB420AD9ED1908F1FF3280F0238145
:1003A800AB4240F22081A8F102083D44ED1AA4B204
:1003B800B5FBFAF00AFB105544EA054400FB09F9BD
:1003C800A14509D9E41900F1FF3380F00A81A1455C
:1003D80040F2078102383C44A4EB090440EA084093
:1003E8000021002E61D024FA0EF4002334607360DB
:1003F800BDE8F0878B4207D9002E54D0002186E84B
:1004080021000846BDE8F087B3FA83F1002940F0DF
:100418008E80AB4202D3824200F2FA80841A65EBE6
:1004280003050120AC46002E3FD086E81010BDE839
:10043800F08712B90127B7FBF2F7B7FA87FEBEF1CA
:10044800000F34D1EB1B3A0C1FFA87FC0121B3FBD8
:10045800F2F8250C02FB183345EA03450CFB08F3B8
:10046800AB4207D9ED1908F1FF3002D2AB4200F2D6
:10047800D1808046ED1AA3B2B5FBF2F002FB10550D
:1004880043EA05440CFB00FCA44507D9E41900F134
:10049800FF3302D2A44500F2B8801846A4EB0C043E
:1004A80040EA08409DE731463046BDE8F087CEF186
:1004B800200405FA0EF307FA0EF720FA04F83A0CAE
:1004C80025FA04F448EA0308B4FBF2F14FEA1845A8
:1004D80002FB11441FFA87FC45EA044501FB0CF3B3
:1004E800AB4200FA0EF409D9ED1901F1FF3080F0A2
:1004F8008A80AB4240F2878002393D44EB1A1FFAEA
:1005080088F5B3FBF2F002FB103345EA034500FB24
:100518000CF3AB4207D9ED1900F1FF386FD2AB42AB
:100528006DD902383D44EB1A40EA01418FE7C1F129
:10053800200722FA07F88B4005FA01F448EA03037A
:1005480020FA07FE4FEA134CFD404EEA040EB5FBB5
:10055800FCF94FEA1E440CFB19551FFA83F844EACC
:10056800054509FB08F4AC4202FA01F200FA01FA67
:1005780008D9ED1809F1FF3043D2AC4241D9A9F1AD
:1005880002091D442D1B1FFA8EFEB5FBFCF00CFB67
:1005980010554EEA054400FB08F8A04507D9E418B1
:1005A80000F1FF3529D2A04527D902381C4440EA7A
:1005B8000940A4EB0804A0FB02894C45C6464D46F9
:1005C80015D312D056B1BAEB0E0364EB050404FA46
:1005D80007F7CB401F43CC40376074600021BDE86B
:1005E800F0871846F8E69046E0E6C245EAD2B8EB4E
:1005F800020E69EB03050138E4E72846D7E74046D1
:1006080091E78146BEE7014678E702383C4445E772
:10061800084608E7A8F102083D442BE7704700BFE9
:1006280030B589B000240394049405940694079483
:100638000094194B1A6B42F004021A631A6B02F009
:1006480004020092009A01941A6B42F008021A639D
:100658001A6B02F008020192019A02941A6B42F096
:1006680002021A631B6B03F002030293029B0B4DF9
:1006780022464FF40051284601F0FEF84FF400538B
:100688000393012304930594069403A9284601F0D3
:1006980003F809B030BD00BF00380240000802402E
:1006A80010B582B0002401940D4B1A6B42F48002FD
:1006B8001A631B6B03F480030193019B22462146B6
:1006C8003A2001F003FB3A2001F032FB2246214692
:1006D800462001F0FBFA462001F02AFB02B010BDCB
:1006E8000038024010B5094C4AF6CD3323806080AB
:1006F800A180584000B24840E0804FF0FF33082204
:100708002146034800F071FB10BD00BFA80100207E
:100718000401002038B5534B1B783BB9524A117875
:10072800524A127842EA012251490A80504A1188F5
:100738004AF6CD32914217D0023BDBB20F2B0AD8D2
:100748004C4A1368591C1160474A12781A70454A76
:10075800137801331370434B1B78122B13D0424B81
:100768001A78424B1A7038BD434A404B19781346E1
:1007780003F8021B3F490B603B4B1B785370022266
:10078800384B1A70E7E73C4A11880BB2B2F90200FD
:100798004340B2F904004340B2F906004340B2F9BD
:1007A80008004340B2F90A004340B2F90C00434044
:1007B800B2F90E2053409BB24AF6CD3291420AD08C
:1007C8004FF0FF3317222D492D4800F00EFB002271
:1007D800244B1A70C3E7284A128A9342F0D1294C55
:1007E800254B1D6858689968DA6825606060A160C3
:1007F800E2601B8A2382224D4FF0FF330222A118A8
:10080800284600F0F2FA4FF0FF330222211D284655
:1008180000F0EBFA4FF0FF330222A11D284600F04A
:10082800E4FA4FF0FF33022204F10801284600F0F1
:10083800DCFA4FF0FF33022204F10A01284600F0E7
:10084800D4FA4FF0FF33022204F10C01284600F0DD
:10085800CCFA4FF0FF33022204F10E01284600F0D3
:10086800C4FAB4E72800002048010020A4010020B1
:100878004A0100202C00002030000020E01E000863
:10088800600100204C01002008B54FF0FF33112211
:100898000549064800F0A9FAFFF73CFF0122044980
:1008A800044800F0B9FB08BDCC1E00086001002018
:1008B800480100200401002072B6FEE708B50A4886
:1008C8000A4B03604FF4E133436000238360C36045
:1008D80003610C2242618361C36100F057FA00B9D9
:1008E80008BDFFF7E9FF00BF040100200010014028
:1008F80008B50A480A4B03604FF4E133436000230C
:100908008360C36003610C2242618361C36100F0AC
:100918003DFA00B908BDFFF7CFFF00BF6001002016
:100928000044004000B595B03022002108A8FFF728
:10093800A1FC002303930493059306930793019363
:100948001F4A116C41F080511164126C02F0805200
:100958000192019A02931B4A116841F48041116087
:10096800126802F480420292029A0222089201213D
:100978000B9110210C910E920F9308231093A8232A
:10098800119312920423139308A800F061FB98B9FD
:100998000F23039302230493002305934FF4A053DA
:1009A80006934FF480530793052103A800F09EFD9A
:1009B80020B915B05DF804FBFFF77EFFFFF77CFF59
:1009C800003802400070004008B501F0FBF9FFF75D
:1009D800A9FFFFF725FEFFF763FEFFF76FFFFFF79D
:1009E80087FF01220B490C4800F016FB4FF0FF333C
:1009F80011220A490A4800F0F8F94FF40051094851
:100A080000F040FF322001F009FA01210020FFF731
:100A180069FEF2E74801002004010020F81E0008E2
:100A28006001002000080240FEE7FEE7FEE7FEE75F
:100A3800FEE770477047704708B501F0DDF908BD5B
:100A480008B5024801F042F808BD00BFA400002024
:100A580008B5024801F03AF808BD00BF440000207C
:100A680082B0002100910B4B5A6C42F480425A64C8
:100A78005A6C02F480420092009A01911A6C42F07A
:100A880080521A641B6C03F080530193019B02B0DF
:100A9800704700BF0038024030B58BB00023059383
:100AA80006930793089309930368414A934204D035
:100AB800404A934259D00BB030BD044600250195F9
:100AC8003D4B5A6C42F010025A645A6C02F0100204
:100AD8000192019A02951A6B42F002021A631B6B8B
:100AE80003F002030293029BC0230593022306939B
:100AF800032308930723099305A9304800F0CCFD88
:100B08002F48304B03604FF0006343608560C56039
:100B18004FF48063036145618561C5610562456283
:100B280000F036FFD8B9264BA3639C632648274BB1
:100B380003604FF000634360402383600023C36079
:100B48004FF48062026143618361C361036243625F
:100B580000F01EFF30B91C4B63639C63ABE7FFF7E3
:100B6800ABFEE0E7FFF7A8FEF5E700210391124B83
:100B78001A6C42F400321A641A6C02F400320392BE
:100B8800039A04911A6B42F008021A631B6B03F074
:100B980008030493049B602305930223069303230D
:100BA80008930723099305A9094800F075FD82E712
:100BB8000010014000440040003802400004024098
:100BC800A40000204064024044000020B8640240B1
:100BD800000C02400268D36823F0C003D3602023CE
:100BE80080F83D3070470268D36823F49073D3606F
:100BF8000268536923F001035361036B012B05D08D
:100C0800202380F83E300023036370470268D368CE
:100C180023F01003D360F3E7F8B5044602681369BC
:100C280023F44053C1680B4313618368026913437B
:100C380042691343C26913430168CA6822F4164221
:100C480022F00C021343CB600268536923F440730B
:100C580081690B4353610368314A934232D002F5EC
:100C6800806293422ED000F0F7FCE369B3F5004FA1
:100C78002BD025680021061841EB010736184F4193
:100C8800FB0043EA5673F20016461F4663689A0053
:100C98009B0F80197941FFF73BFB224CA4FB0032E4
:100CA8005109642202FB110213013233A4FB03230E
:100CB8005B0903F0F00202EB011203F00F03134487
:100CC800AB60F8BD00F0D8FCCFE725680021061816
:100CD80041EB010736184F41FB0043EA5673F20017
:100CE80016461F466268002392185B4180197941B5
:100CF800FFF70EFB0B4CA4FB00325109642202FBE8
:100D08001102D3003233A4FB03235B095A0002F417
:100D1800F87202EB011203F007031344AB60F8BD4D
:100D2800001001401F85EB512DE9F04105460F46A3
:100D380016469846069C2B681B6837EA03030CBFC7
:100D480001230023B3421ED1B4F1FF3FF3D02CB1ED
:100D580001F05EF8A0EB08008442ECD22A68D36860
:100D680023F4D073D3602A68536923F001035361D5
:100D7800202385F83D3085F83E30002385F83C3047
:100D88000320BDE8F0810020BDE8F08158B310B51C
:100D9800044690F83D300BB3242384F83D30226894
:100DA800D36823F40053D3602046FFF735FF226849
:100DB800136923F4904313612268536923F02A03CB
:100DC80053612268D36843F40053D3600020206441
:100DD800202384F83D3084F83E3010BD80F83C3044
:100DE800FFF75AFED8E7012070472DE9F04182B09D
:100DF8001E4690F83D30DBB2202B04D00223184663
:100E080002B0BDE8F08104460D469046002954D052
:100E1800002A54D090F83C30012B01D10223EEE790
:100E2800012380F83C3000230364212380F83D30FF
:100E380000F0EEFF0746A4F82480A4F82680A368F3
:100E4800B3F5805F05D04FF00008002384F83C30EC
:100E580012E0236913B14FF00008F6E7A846002511
:100E6800F3E7226838F8023BC3F308035360E38CC6
:100E78009BB2013B9BB2E384E38C9BB273B10096B7
:100E88003B46002280212046FFF74EFFC8B9002DBF
:100E9800E7D0236815F8012B5A60E8E700963B462F
:100EA800002240212046FFF73FFF034608B10323F5
:100EB800A5E7202284F83D20A1E701239FE701232D
:100EC8009DE703239BE77047704710B5846B236841
:100ED8005A6994F83D30DBB2212B10D023685A6947
:100EE80002F0400294F83E30DBB2222B11D0236C82
:100EF80043F0100323642046FFF7E6FF10BD02F01D
:100F08008002002AEAD00023E3842046FFF762FE2D
:100F1800E4E7002AEBD00023E3852046FFF763FED1
:100F2800E5E7704708B5806B036B012B02D0FFF72C
:100F3800CAFF08BD818D4908FFF7F3FF08BD08B552
:100F4800836B0268126812F4807F16D10022DA855A
:100F58001968CA6822F48072CA6019684A6922F05E
:100F680001024A6119684A6922F040024A61202256
:100F780083F83E201A6B012A06D01A6B012A09D081
:100F88001846FFF781FC08BD1968CA6822F01002EC
:100F9800CA60F2E7998D1846FFF7C3FF08BD000045
:100FA80030B583B0044613468162A28500250564E6
:100FB800222280F83E20826B1448D063A26B14482A
:100FC8001064A26B1348D064A26B156520680A46AA
:100FD800011DA06B00F044FD019523681A68019279
:100FE8005A680192019A84F83C50DA6842F4807297
:100FF800DA602268536943F0010353612268536938
:1010080043F040035361284603B030BD470F000842
:101018002D0F0008D30E000808B590F83E30DBB25B
:10102800202B01D0022008BD71B17AB190F83C3074
:10103800012B01D1022008BD012380F83C30002398
:101048000363FFF7ADFF08BD012008BD012008BDFF
:10105800002800F0E98170B582B00446036813F0F7
:10106800010F3BD0A74B9B6803F00C03042B2CD03B
:10107800A44B9B6803F00C03082B21D06368B3F5DD
:10108800803F4FD0B3F5A02F52D09E4B1A6822F460
:1010980080321A601A6822F480221A606368002B72
:1010A80050D000F0B5FE0546964B1B6813F4003F80
:1010B80014D100F0ADFE401B6428F5D90320B8E137
:1010C800904B5B6813F4800FD8D08E4B1B6813F4D9
:1010D800003F03D06368002B00F0A881236813F059
:1010E800020F55D0874B9B6813F00C0F3ED0854BF1
:1010F8009B6803F00C03082B33D0E368002B68D0FF
:101108000122814B1A6000F083FE05467D4B1B6867
:1011180013F0020F54D100F07BFE401B0228F5D9D2
:10112800032086E1774A136843F480331360B5E7F8
:10113800744B1A6842F480221A601A6842F48032AA
:101148001A60ABE700F064FE05466E4B1B6813F4AB
:10115800003FC3D000F05CFE401B6428F5D9032093
:1011680067E1684B5B6813F4800FC6D1654B1B6859
:1011780013F0020F04D0E368012B01D0012058E1DD
:10118800604A136823F0F803216943EAC103136036
:10119800236813F0080F40D0636963B301225B4BE7
:1011A8001A6000F035FE0546564B5B6F13F0020FD0
:1011B80033D100F02DFE401B0228F5D9032038E179
:1011C800504A136823F0F803216943EAC103136006
:1011D800DEE700224C4B1A6000F01AFE0546494B28
:1011E8001B6813F0020FD3D000F012FE401B022838
:1011F800F5D903201DE10022444B1A6000F008FED7
:101208000546404B5B6F13F0020F06D000F000FE5E
:10121800401B0228F5D903200BE1236813F0040FC3
:1012280079D0384B1B6C13F0805F33D100230193C6
:10123800344B1A6C42F080521A641B6C03F08053D2
:101248000193019B0125324B1B6813F4807F23D047
:10125800A368012B34D0052B38D02A4B1A6F22F003
:1012680001021A671A6F22F004021A67A368002B9A
:1012780036D000F0CDFD0646224B1B6F13F0020F4F
:1012880048D100F0C5FD801B41F288339842F3D95C
:101298000320CEE00025D6E71D4A136843F4807387
:1012A800136000F0B5FD0646194B1B6813F4807FE8
:1012B800CED100F0ADFD801B0228F5D90320B8E09F
:1012C800104A136F43F001031367CFE70D4B1A6FF2
:1012D80042F004021A671A6F42F001021A67C5E762
:1012E80000F096FD0646074B1B6F13F0020F11D056
:1012F80000F08EFD801B41F288339842F3D9032019
:1013080097E000BF0038024000004742800E474285
:1013180000700040EDB9A369002B00F08980484AAD
:10132800926802F00C02082A51D0022B17D0002232
:10133800444B1A6000F06CFD0446414B1B6813F0E7
:10134800007F42D000F064FD001B0228F5D903207D
:101358006FE03B4A136C23F080531364DBE70022F1
:10136800384B1A6000F054FD0546354B1B6813F0E6
:10137800007F06D000F04CFD401B0228F5D9032061
:1013880057E0E369226A1343626A43EA8213A26A56
:101398005208013A43EA0243E26A43EA0263284AEE
:1013A80053600122274B1A6000F032FD0446244B9B
:1013B8001B6813F0007F06D100F02AFD001B0228ED
:1013C800F5D9032035E0002033E0002031E0012B7F
:1013D80031D01B4B5B6803F48001E269914201D074
:1013E800012026E003F03F02216A8A4201D0012051
:1013F8001FE0616A47F6C0721A40B2EB811F01D044
:10140800012016E003F44031A26A5208013AB1EB18
:10141800024F01D001200CE003F07063E26AB3EBE5
:10142800026F0AD0012004E001207047012000E08B
:10143800002002B070BD0120FBE70020F9E700BFE3
:101448000038024060004742F8B5254B9B6803F01E
:101458000C03042B41D0082B01D02248F8BD204BA7
:101468005A6802F03F025B6813F4800F12D01C4BDD
:101478005968C1F3881100231B48A1FB0001FEF73E
:1014880047FF174B5B68C3F3014301335B00B0FBB5
:10149800F3F0F8BD124B5B68C3F388131E460027B0
:1014A8005C010025E41A65EB0705A90141EA94618E
:1014B800A001001B61EB0501CB0043EA5073C40097
:1014C800A01943EB07018B0243EA9053840220469C
:1014D80019460023FEF71CFFD3E70348F8BD00BFF9
:1014E800003802400024F40040787D01002800F014
:1014F8009E8070B50446504B1B6803F007038B426F
:1015080009D2CBB24C4A1370136803F0070399420F
:1015180001D0012070BD236813F0020F17D013F01B
:10152800040F04D0454A936843F4E053936023685A
:1015380013F0080F04D0414A936843F46043936062
:101548003E4A936823F0F003A068034393600D4676
:10155800236813F0010F32D06368012B21D09A1E43
:10156800012A25D9354A126812F0020F61D0334991
:101578008A6822F0030213438B6000F049FC064698
:101588002E4B9B6803F00C036268B3EB820F16D0F6
:1015980000F03EFC801B41F288339842F0D90320CA
:1015A80070BD264A126812F4003FE0D1012070BDD8
:1015B800224A126812F0007FD9D1012070BD1E4B5B
:1015C8001B6803F007039D4209D2EAB21A4B1A704E
:1015D8001B6803F007039D4201D0012070BD2368FA
:1015E80013F0040F06D0154A936823F4E053E1681A
:1015F8000B439360236813F0080F07D00F4A9368D2
:1016080023F46043216943EAC1039360FFF71CFF99
:101618000A4B9B68C3F30313094AD35CD840094BB0
:101628001860094B186800F0A7FB002070BD012066
:101638007047012070BD00BF003C024000380240E6
:10164800141F00080800002004000020014B18683F
:10165800704700BF0800002008B5FFF7F7FF044BEC
:101668009B68C3F38223034AD35CD84008BD00BFFC
:1016780000380240241F000808B5FFF7E7FF044BB5
:101688009B68C3F34233034AD35CD84008BD00BF0C
:1016980000380240241F000800230F2B00F2E080CE
:1016A800F0B583B062E085684FEA430E032707FA76
:1016B8000EF725EA0705CE6806FA0EF6354385606B
:1016C800456825EA02024D68C5F300159D402A4386
:1016D800426057E0DD08083550F8252003F007067A
:1016E800B6000F27B74022EA07020F6907FA06F685
:1016F800324340F8252059E0072600E0002606FA84
:101708000EF635430232574E46F82250564A1568AF
:10171800E24305EA02064F6817F4803F01D044EA25
:101728000506514D2E606D6802EA05064F6817F4EC
:10173800003F01D044EA05064B4D6E60AD6802EAF1
:1017480005064F6817F4801F01D044EA0506464D88
:10175800AE60ED682A404E6816F4001F01D044EAD6
:101768000502414CE26001330F2B77D801229A40E1
:101778000C681440A242F6D14D6805F00305013DFE
:10178800012D90D94A6802F00302032A09D0C268E1
:101798005F000326BE4022EA06028D68BD402A4348
:1017A800C2604A6802F00302022A93D002685F000E
:1017B8000326BE4022EA06024D6805F00305BD4037
:1017C8002A4302604A6812F0805FCCD0002201925E
:1017D800264A556C45F480455564526C02F48042A3
:1017E8000192019A9A08961C1E4D55F8265003F04E
:1017F80003064FEA860E0F2606FA0EF625EA0605B8
:101808001B4FB8423FF47AAF1A4EB0421AD006F5D1
:101818008066B04218D006F58066B04216D006F54C
:101828008066B04214D006F58066B04212D006F544
:101838008066B04210D006F58066B0423FF45CAFD7
:1018480008265CE701265AE7022658E7032656E7EA
:10185800042654E7052652E7062650E703B0F0BDF4
:10186800704700BF00380140003C0140003802408A
:10187800000002400004024012B909048161704767
:1018880081617047436903EA010221EA030141EAE1
:1018980002418161704730B405682C6824F48024C3
:1018A8002C60046863608368402B05D003689960E6
:1018B8000368DA6030BC704703689A600368D960CF
:1018C800F8E700000268D3B2103B0B49A1FB0313F1
:1018D8001B090A49C95CC165032B06D822F47F722B
:1018E80022F003028265806D704722F47F7222F035
:1018F800030204328265F6E7ABAAAAAA0C1F000805
:10190800836A826992B9012B0AD01BB1022B01D0DC
:1019180000207047C36A13F0807F2CD100207047E5
:10192800C36AB3F1C07F28D000207047B2F5005FCA
:1019380005D0022B29D9032B15D000207047032B83
:1019480003D8DFE803F01C041C0A00207047C36AB0
:1019580013F0807F15D100207047C36AB3F1C07FB0
:1019680011D000207047C36A13F0807F01D0012096
:101978007047002070470120704701207047012000
:101988007047012070470120704701207047000010
:1019980070B5044600F03CFA002C5DD005460023E3
:1019A80084F83430022384F835302268136823F031
:1019B8000103136023681A6812F0010F0AD000F0BF
:1019C80027FA401B0528F5D920236365032084F8EE
:1019D800350070BD1A68214911406268A068024349
:1019E800E06802432069024360690243A069024338
:1019F800E0690243206A02430A43616A042916D057
:101A08001A602668756925F00705636A1D43042B6B
:101A180012D075612046FFF755FFE26D3F239340D2
:101A2800836000206065012384F8353070BDE16A69
:101A3800206B01430A43E3E7A36A1D43E36A002BD3
:101A4800E7D02046FFF75CFF0028E2D0402363651B
:101A5800012084F8350070BD012070BD3F8010F072
:101A680038B5856D90F83440012C2CD0012480F8CD
:101A7800344090F83540E4B2012C04D0002380F8BB
:101A88003430022038BD0446022084F83500002096
:101A980060652046FFF7FFFEE26D3F239340AB6091
:101AA8002268136843F016031360236C23B122687D
:101AB800136843F0080313602268136843F00103B6
:101AC8001360002038BD022038BD0000F0B583B097
:101AD800044600230193724B1D68724BA3FB053526
:101AE800AD0A876D3E68C26D082393401E4210D030
:101AF80003681A6812F0040F0BD01A6822F0040267
:101B08001A60C26D08239340BB60436D43F0010324
:101B18004365E26D012393401E4209D02268526951
:101B280012F0800F04D0BB60636D43F0020363655D
:101B3800E26D042393401E4209D02268126812F015
:101B4800020F04D0BB60636D43F004036365E26D6C
:101B5800102393401E4224D02268126812F0080F06
:101B68001FD0BB6023681A6812F4802F0DD01B6841
:101B780013F4002F04D1236C9BB12046984710E042
:101B8800A36C73B1204698470BE01A6812F4807F63
:101B980003D11A6822F008021A60236C0BB12046A0
:101BA8009847E26D202393401E4255D02268126860
:101BB80012F0100F50D0BB6094F83530DBB2052B13
:101BC8000ED023681A6812F4802F33D01B6813F4E0
:101BD800002F2AD1636C002B3ED0204698473BE06B
:101BE8002268136823F0160313602268536923F0F0
:101BF80080035361236CA3B12268136823F00803A0
:101C08001360E26D3F239340BB60002384F83430B7
:101C1800012384F83530236D002B3FD020469847A8
:101C28003CE0A36C002BE7D1EBE7E36BA3B12046C4
:101C3800984711E01A6812F4807F09D11A6822F0D7
:101C480010021A60002384F83430012384F83530F8
:101C5800E36B0BB120469847636DFBB1636D13F0DE
:101C6800010F17D0052384F835302268136823F054
:101C780001031360019B013301939D4204D3236840
:101C88001B6813F0010FF5D1002384F834300123C9
:101C980084F83530E36C0BB12046984703B0F0BDAB
:101CA80008000020B5814E1B074AD36823F4E0637F
:101CB8001B041B0C000200F4E060184340F0BF60F6
:101CC80040F40030D060704700ED00E030B4164BAF
:101CD800DB68C3F30223C3F10704042C28BF0424E0
:101CE8001D1D062D17D9033B012505FA04F4013CF7
:101CF8002140994005FA03F3013B1340194300289A
:101D08000BDB0901C9B200F1604000F5614080F8C1
:101D1800001330BC70470023E6E700F00F0009010C
:101D2800C9B2024B1954F4E700ED00E014ED00E0ED
:101D3800002808DB420900F01F00012303FA00F025
:101D4800014B43F82200704700E100E00138B0F190
:101D5800807F0AD2064B5860F021064A82F8231089
:101D68000020986007221A6070470120704700BF62
:101D780010E000E000ED00E010B504460E4B1878C6
:101D88004FF47A73B3FBF0F30C4A1068B0FBF3F02E
:101D9800FFF7DCFF68B90F2C01D9012010BD002224
:101DA80021464FF0FF30FFF791FF054B1C600020E4
:101DB80010BD012010BD00BF000000200800002059
:101DC8000400002008B50B4B1A6842F400721A6030
:101DD8001A6842F480621A601A6842F480721A60C3
:101DE8000320FFF761FF0020FFF7C6FFFEF738FE6C
:101DF800002008BD003C0240034A1168034B1B78D1
:101E08000B441360704700BFB001002000000020A1
:101E1800014B1868704700BFB001002038B5044670
:101E2800FFF7F6FF0546B4F1FF3F02D0044B1B78DD
:101E38001C44FFF7EDFF401B8442FAD838BD00BFB1
:101E480000000020034AD2F8883043F47003C2F837
:101E58008830704700ED00E0DFF834D00D480E49B7
:101E68000E4A002302E0D458C4500433C4188C42EC
:101E7800F9D30B4A0B4C002301E013600432A24251
:101E8800FBD3FFF7DFFFFEF7CDF9FEF79DFD7047A7
:101E980000000220000000200C0000203C1F000869
:101EA8000C000020B4010020FEE70000F8B500BFD8
:101EB800F8BC08BC9E467047F8B500BFF8BC08BC23
:041EC8009E4670477B
:101ECC000D0A4279746520726563656976656420D4
:101EDC00000000004E6F6E2D76616C6964206461A9
:101EEC00746120736B697070656400005265636582
:101EFC006976696E6720446174610D0A0000000008
:101F0C00000610160006101600000000000000006D
:101F1C000102030406070809000000000102030483
:081F2C001CE4FF7F010000002E
:041F3400F5010008AB
:041F3800CD010008CF
:0C1F3C0001000000100000000024F40070
:0400000508001E6170
:00000001FF
