:020000040800F2
:1000000000000220FD2A0008CD160008CF160008C7
:10001000D1160008D3160008D5160008000000000D
:10002000000000000000000000000000D7160008DB
:10003000D916000800000000DB160008DD160008D5
:100040004D2B00084D2B00084D2B00084D2B0008B0
:100050004D2B00084D2B00084D2B00084D2B0008A0
:100060004D2B00084D2B00084D2B00084D2B000890
:100070004D2B00084D2B00084D2B00084D2B000880
:100080004D2B00084D2B00084D2B00084D2B000870
:100090004D2B00084D2B00084D2B00084D2B000860
:1000A0004D2B00084D2B00084D2B00084D2B000850
:1000B0004D2B00084D2B00084D2B00084D2B000840
:1000C0004D2B00084D2B00084D2B00084D2B000830
:1000D0004D2B00084D2B00084D2B00084D2B000820
:1000E0004D2B00084D2B00084D2B00084D2B000810
:1000F0004D2B00084D2B00084D2B00084D2B000800
:100100004D2B00084D2B00084D2B00084D2B0008EF
:100110004D2B00084D2B00084D2B00084D2B0008DF
:100120004D2B00084D2B0008E51600084D2B00084C
:100130004D2B00084D2B00084D2B00084D2B0008BF
:100140004D2B00084D2B00084D2B00084D2B0008AF
:100150004D2B00084D2B0008F51600084D2B00080C
:100160004D2B00084D2B00084D2B00084D2B00088F
:100170004D2B00084D2B00084D2B000800000000FF
:080180004D2B00084D2B000877
:10019000044B05481B1A062B02D9044B03B1184720
:1001A000704700BF730000207000002000000000B6
:1001B00005490648091A891001EBD171491002D08E
:1001C000034B03B1184770477000002070000020F7
:1001D0000000000010B5064C237843B9FFF7D8FFA4
:1001E000044B13B10448AFF300800123237010BD0A
:1001F0007000002000000000502B000808B5084BDC
:100200001BB108490848AFF300800848036813B9D8
:10021000BDE80840CCE7064B002BF9D09847F7E73C
:100220000000000074000020502B00087000002027
:100230000000000070B50F4E0F4D761BB61018BFB2
:10024000002405D0013455F8043B9847A642F9D163
:100250000A4E0B4D761B02F07BFCB61018BF002433
:1002600006D0013455F8043B9847A642F9D170BD39
:1002700070BD00BF082C0008082C00080C2C0008DA
:10028000082C000870B4860746D0541E002A41D0BE
:10029000CAB2034602E014F1FF343BD303F8012B4A
:1002A0009D07F8D1032C2ED9CDB245EA05250F2C98
:1002B00045EA054519D903F110022646103E0F2ED6
:1002C00042F8105C42F80C5C42F8085C42F8045CAE
:1002D00002F11002F2D8A4F1100222F00F0204F091
:1002E0000F041032032C13440DD91E462246043A43
:1002F000032A46F8045BFAD8221F22F003020432D4
:10030000134404F003042CB1C9B21C4403F8011BCC
:100310009C42FBD170BC704714460346C2E700BF45
:100320000CB4F0B59DB022AC029154F8042B0691A8
:1003300023466FF000454FF402774FF6FF7602A98F
:100340000194ADF8147004950795ADF8166000F0AF
:100350000FF9029B00221A701DB0BDE8F04002B0F8
:10036000704700BF0EB4F0B59CB021AB0F4953F8F5
:10037000042B019305466FF00044086802954FF482
:1003800002774FF6FF7602A90695ADF81470049433
:100390000794ADF8166000F0EBF8029B00221A708B
:1003A0001CB0BDE8F04003B0704700BF0000002063
:1003B0002DE9F0478E689E420C461D46174628D808
:1003C0008046888910F4906F32D04E69236809699D
:1003D00006EB4606A3EB010906EBD6766B1C7610FE
:1003E0004B44B342324684BF1E463246430522D5B3
:1003F0001146404600F052FD824680B34A462169CC
:1004000000F006FCA38923F4906343F08003A381EA
:1004100016E008681E462A46394600F093FCA2689A
:100420002368961B2B44A66023600020BDE8F0875C
:1004300008683546EFE7404600F08EFD824650B131
:10044000A6EB09030AEB09006661C4F810A020605E
:10045000A3602E46DFE72169404600F0D7FC0C235D
:10046000C8F80030A38943F04003A3814FF0FF3068
:10047000BDE8F0872DE9F04F936883B09046002BDC
:1004800070D082460C4617688D68086842E0A389E0
:1004900013F4906F2ED06569216905EB4505A0EB3B
:1004A000010B05EBD5750BF101006D103044A8422E
:1004B0002A4684BF05462A465B0538D51146504674
:1004C00000F0ECFC00283CD05A462169019000F075
:1004D0009FFBA289019B22F4906242F08002A281DC
:1004E000A5EB0B0203EB0B00656123612060A260AA
:1004F0003546B3465A46494600F024FCD8F8083041
:10050000A2682068551B58449E1BA5602060C8F84F
:1005100008603EB37E683B460837002EFAD0AE42F4
:10052000D3F80090AB46B2D23546B346E2E7504628
:1005300000F012FD03460028D2D12169504600F098
:1005400065FC0C23CAF80030A389002243F0400365
:100550004FF0FF30A381C8F80820C8F8042003B08A
:10056000BDE8F08F0020C8F8040003B0BDE8F08FAC
:100570002DE9F04F14468A899DB0150689460393EC
:10058000824603D50B69002B00F0EB8030238DF8F9
:100590002A3023787C4E0022202109928DF82910E0
:1005A0000127002B00F08480252B254603D117E07E
:1005B000252B00F0878015F8013F002BF8D1B5EB13
:1005C000040B75D022465B4649465046FFF7F0FEC5
:1005D00001306DD0099B2A785B440993002A67D0CB
:1005E00000234FF0FF3201350493079306938DF8F3
:1005F00053301A93059204E0049A07FA03F3134365
:10060000049329780522304600F0B2FA2C46831B69
:1006100001350028F0D1049BD90644BF20228DF873
:10062000532021781A0744BF2B228DF853202A2902
:100630006BD0A1F13002092A0BD8079B14F8011FD7
:1006400003EB830302EB4303A1F13002092AF5D93E
:1006500007932E2941D04D4D0322284600F088FAF9
:1006600038B1049B401B402202FA00F003430134DE
:100670000493217846488DF828100622013400F0B2
:1006800077FA00284BD0434B03B303AB00934A46A1
:10069000414B04A95046AFF300808046B8F1FF3FBC
:1006A00006D0099B434409932378002B7FF47CAF49
:1006B000B9F80C305B0654BF09984FF0FF301DB0FD
:1006C000BDE8F08FB5EB040B8AD07BE7039B0733C3
:1006D00023F0070308330393E3E761782A2904F141
:1006E000010026D0A1F130020023092A0593044617
:1006F000B1D814F8011F03EB830302EB4303A1F10C
:100700003002092AF5D90593A5E7039A1168043246
:10071000002903921FDB07916178013499E703AB4D
:1007200000934A461C4B04A9504600F0D1F880467D
:10073000B4E7039B1A680592002A03F104030393AC
:10074000B8BF4FF0FF3204F10203AEBFA178A17829
:1007500005921C467FE7494243F002030791049348
:10076000DAE7402100F09AFBC9F80000C9F8100050
:1007700018B14023C9F8143008E70C23CAF8003038
:100780004FF0FF309BE700BFC42B0008CC2B0008C4
:10079000D02B000800000000B10300082DE9F0474D
:1007A0000C4691460A698968DDF820808A42B8BF04
:1007B0000A46C9F8002094F8431006461F4611B1B6
:1007C0000132C9F80020236899065DD5D9F80020C8
:1007D0000232C9F80020236813F0060F19461DD114
:1007E000E1688A1A002AD8BF194617DD04F1190AF0
:1007F000002505E0E368D9F800209B1AAB420CDD28
:100800000123524639463046C047013005F1010503
:10081000F0D14FF0FF30BDE8F087216894F8433005
:10082000003318BF01238A060AD5E1185A1C30206C
:1008300081F84300224494F8451082F843100233B3
:1008400004F1430239463046C0470130E1D0236805
:1008500003F00603042B29D0A36822699342C8BF82
:100860004FF0000930DD9B1A99441A34002501E04D
:100870004D4529D00123224639463046C047013034
:1008800005F10105F4D1C4E713F0060F08D1E168C2
:10089000D9F800208A1A002AD8BF1946A6DCBDE77D
:1008A00094F84330003318BF0123C9E7D9F800108A
:1008B000E068A3682269A0EB0109934229EAE9797B
:1008C000D1DCB9F1000FD0D10020BDE8F08700BF26
:1008D0002DE9F0430C46097E85B06E290646174681
:1008E0000C98984604F1430C55D00FD8632900F0BA
:1008F0001B8100F2D68000295CD0582940F0E880A6
:1009000084F845102268DFF860E213E0732900F0F4
:10091000FD8000F289806F2900F0E480702940F0AA
:10092000D780226842F0200222607823DFF83CE280
:1009300084F845300368150603F1040100F1FF80D7
:1009400055064BBF1B881B6801600160D00744BF80
:1009500042F020022260002B40F09580226822F0B5
:10096000200222601021002284F843206068A060E9
:100970000028C0F28D80226822F004022260002B41
:1009800067D1002840F08680654608296FD0ACEB1F
:100990000503236111E023681A0600F1D38013F0E8
:1009A000400F0368626903F1040101601B6814BF12
:1009B0001A801A60002365462361CDF800803B460B
:1009C00003AA21463046FFF7E9FE013021D02A462E
:1009D000236939463046C04701301AD02368E068A1
:1009E00013F0020F039B19D0C21A002A16DD04F17E
:1009F0001909002504E0E068039BC21AAA420DDD34
:100A000001234A4639463046C047013005F1010509
:100A1000F1D14FF0FF3005B0BDE8F0839842B8BF88
:100A2000184605B0BDE8F08375295BD078294FD111
:100A300022687AE76168A1602D200029C3F10003D4
:100A400084F8430021DB22F00402DFF81CE122607D
:100A50000A216546B3FBF1F201FB123013461EF882
:100A6000002005F8012D002BF4D108298FD123682F
:100A7000D9078CD5626823699A4288DC302305F84F
:100A8000013C013D83E710216DE7DFF8DCE00A213E
:100A9000002BDED19EF8003084F8423004F142058C
:100AA00073E7642901D0692912D122680368150609
:100AB00003F1040152D455064BBFB3F900301B6853
:100AC00001600160002BB5DBDFF89CE00A214DE7F7
:100AD000012384F84210236104F14205002384F8C5
:100AE00043306AE723681A0633D413F0400F0368D3
:100AF00003F1040215BF1B881B68026002606F29A6
:100B000014BF0A210821DFF860E02CE7036862685F
:100B1000191D01601D680021284600F029F800B366
:100B2000401B60602061D9E703681A68191D012322
:100B3000016004F1420584F842202361CEE70160A0
:100B40001B6803E703686269191D01601B681A606E
:100B500030E703681A1D02601B68D0E701601B685C
:100B6000B0E76068DEE700BFD82B0008EC2B000878
:100B700001F0FF01102A2BDB10F0070F08D010F84E
:100B8000013B013A8B422DD010F0070F42B3F6D152
:100B9000F0B441EA012141EA014122F007047FF06B
:100BA00000070023F0E80256083C85EA010586EAC2
:100BB000010685FA47F5A3FA87F586FA47F6A5FAFE
:100BC00087F68EB9EED1F0BC01F0FF0102F007020A
:100BD00032B110F8013B013A83EA010313B1F8D1B5
:100BE0000020704701387047002D06BF3546033896
:100BF000073815F0010F07D1013015F4807F02BFCF
:100C0000013015F4C03F0130F0BC0138704700BF1F
:100C1000844641EA000313F003036DD1403A41D307
:100C200051F8043B40F8043B51F8043B40F8043BC6
:100C300051F8043B40F8043B51F8043B40F8043BB6
:100C400051F8043B40F8043B51F8043B40F8043BA6
:100C500051F8043B40F8043B51F8043B40F8043B96
:100C600051F8043B40F8043B51F8043B40F8043B86
:100C700051F8043B40F8043B51F8043B40F8043B76
:100C800051F8043B40F8043B51F8043B40F8043B66
:100C900051F8043B40F8043B51F8043B40F8043B56
:100CA000403ABDD2303211D351F8043B40F8043BF6
:100CB00051F8043B40F8043B51F8043B40F8043B36
:100CC00051F8043B40F8043B103AEDD20C3205D306
:100CD00051F8043B40F8043B043AF9D2043208D0FE
:100CE000D2071CBF11F8013B00F8013B01D30B8870
:100CF00003806046704700BF082A13D38B078DD04E
:100D000010F003038AD0C3F10403D21ADB071CBF1F
:100D100011F8013B00F8013B80D331F8023B20F889
:100D2000023B7BE7043AD9D3013A11F8013B00F8C2
:100D3000013BF9D20B7803704B7843708B7883704A
:100D4000604670478842F0B50DD98B1898420AD298
:100D50008418002A51D0224613F8014D02F8014DA3
:100D60009942F9D1F0BD0F2A48D941EA00039B0707
:100D700046D100F1100401F11003154653F8106C30
:100D800044F8106C53F80C6C44F80C6C53F8086C75
:100D900044F8086C103D53F8046C44F8046C0F2DB3
:100DA00003F1100304F11004E8D8A2F1100323F0BA
:100DB0000F0302F00F0E1033BEF1030F194403446A
:100DC00021D91E1F0D467446043C55F8047B46F895
:100DD000047F032CF8D8AEF1040424F00304043497
:100DE0002144234402F0030262B1013B0A4411F89A
:100DF000014B03F8014F8A42F9D1F0BD0346F3E7F6
:100E00000346F2E7F0BD7246EEE700BF91B151F83C
:100E1000043C0439002BB8BFC9181F4B1A68FAB13B
:100E20008A4230B40AD908680C18A24226D04A6017
:100E3000196030BC70478B4203D81A465368002BA8
:100E4000F9D1146815198D420DD006D808680C1810
:100E50009C4219D04B605160EBE70C230360E8E73C
:100E60004A601960704709680C441119994214606E
:100E7000DFD10ACB0C4453601460DAE7146852687F
:100E80004A6020440860D3E71C685B684B602044DC
:100E900008605160CDE700BF8C00002070B5CC1C0D
:100EA00024F0030408340C2C38BF0C24002C064614
:100EB0003BDBA14239D8274D296851B10A68121B82
:100EC00004D436E01A68121B1AD519464B68002B59
:100ED000F8D16968002937D02146304600F064F81F
:100EE000431C22D0C31C23F00305A84205D0291AB5
:100EF000304600F059F8013017D02C602B4604E042
:100F00000B2A0DD91A6013441C6003F10B0020F06A
:100F100007001A1D821A02D05142995070BD70BD4F
:100F20008B420ED05A684A60EFE70C2333600020F2
:100F300070BD0B2A03D84A680B462A60E5E70B46CA
:100F4000E0E70A460B46F8E7304600F02DF8686007
:100F5000C2E700BF8C000020F8B51446F9B1C2B159
:100F600006460D4600F032F8844201D82846F8BD06
:100F700021463046FFF792FF074670B122462946C8
:100F8000FFF746FE294630463D46FFF73FFF28461D
:100F9000F8BDFFF73BFF2546E8E70546E6E71146C3
:100FA000BDE8F840FFF77ABF38B5074C0023054687
:100FB0000846236000F014F8431C00D038BD2368B5
:100FC000002BFBD02B6038BD4002002051F8040CF0
:100FD0000028A0F10400BCBF0B58C018704700BF28
:100FE000044A05491368002B08BF0B4618441060DB
:100FF00018467047940000204802002053B94AB9AF
:10100000002908BF00281CBF4FF0FF314FF0FF3010
:1010100000F07AB9ADF1080C6DE904CE00F006F8E5
:10102000DDF804E0DDE9022304B070472DE9F04764
:101030008C460D460446089E002B51D18A42174625
:101040006DD9B2FA82FEBEF1000F0BD0CEF1200CAA
:1010500001FA0EF520FA0CFC02FA0EF74CEA050C28
:1010600000FA0EF44FEA174A250CBCFBFAF81FFAF7
:1010700087F90AFB18CC45EA0C4508FB09F3AB429B
:101080000AD9ED1908F1FF3280F02381AB4240F21A
:101090002081A8F102083D44ED1AA4B2B5FBFAF094
:1010A0000AFB105544EA054400FB09F9A14509D99A
:1010B000E41900F1FF3380F00A81A14540F2078175
:1010C00002383C44A4EB090440EA08400021002E09
:1010D00061D024FA0EF4002334607360BDE8F08719
:1010E0008B4207D9002E54D0002186E82100084603
:1010F000BDE8F087B3FA83F1002940F08E80AB425F
:1011000002D3824200F2FA80841A65EB03050120C3
:10111000AC46002E3FD086E81010BDE8F08712B92B
:101120000127B7FBF2F7B7FA87FEBEF1000F34D103
:10113000EB1B3A0C1FFA87FC0121B3FBF2F8250CDC
:1011400002FB183345EA03450CFB08F3AB4207D911
:10115000ED1908F1FF3002D2AB4200F2D180804697
:10116000ED1AA3B2B5FBF2F002FB105543EA0544B9
:101170000CFB00FCA44507D9E41900F1FF3302D2AF
:10118000A44500F2B8801846A4EB0C0440EA0840DD
:101190009DE731463046BDE8F087CEF1200405FAE0
:1011A0000EF307FA0EF720FA04F83A0C25FA04F4C5
:1011B00048EA0308B4FBF2F14FEA184502FB114478
:1011C0001FFA87FC45EA044501FB0CF3AB4200FA29
:1011D0000EF409D9ED1901F1FF3080F08A80AB429D
:1011E00040F2878002393D44EB1A1FFA88F5B3FBC1
:1011F000F2F002FB103345EA034500FB0CF3AB426F
:1012000007D9ED1900F1FF386FD2AB426DD9023822
:101210003D44EB1A40EA01418FE7C1F1200722FA71
:1012200007F88B4005FA01F448EA030320FA07FEA9
:101230004FEA134CFD404EEA040EB5FBFCF94FEAB1
:101240001E440CFB19551FFA83F844EA054509FBB7
:1012500008F4AC4202FA01F200FA01FA08D9ED18DA
:1012600009F1FF3043D2AC4241D9A9F102091D4432
:101270002D1B1FFA8EFEB5FBFCF00CFB10554EEA41
:10128000054400FB08F8A04507D9E41800F1FF3534
:1012900029D2A04527D902381C4440EA0940A4EBD2
:1012A0000804A0FB02894C45C6464D4615D312D012
:1012B00056B1BAEB0E0364EB050404FA07F7CB4012
:1012C0001F43CC40376074600021BDE8F0871846AA
:1012D000F8E69046E0E6C245EAD2B8EB020E69EBCA
:1012E00003050138E4E72846D7E7404691E7814601
:1012F000BEE7014678E702383C4445E7084608E780
:10130000A8F102083D442BE7704700BF30B589B013
:101310000024039404940594069407940094194BB4
:101320001A6B42F004021A631A6B02F00402009274
:10133000009A01941A6B42F008021A631A6B02F0C9
:1013400008020192019A02941A6B42F002021A6397
:101350001B6B03F002030293029B0B4D22464FF4DA
:101360000051284601F0DAF84FF4005303930123AB
:1013700004930594069403A9284600F0DFFF09B002
:1013800030BD00BF003802400008024010B582B0F6
:10139000002401940D4B1A6B42F480021A631B6BFC
:1013A00003F480030193019B224621463A2001F079
:1013B000DFFA3A2001F00EFB22462146462001F0DA
:1013C000D7FA462001F006FB02B010BD00380240FB
:1013D00010B5094C4AF6CD3323806080A180584077
:1013E00000B24840E0804FF0FF3308222146034816
:1013F00000F04DFB10BD00BF200200207C0100204A
:1014000038B5344B1A78344B197841EA0223334803
:1014100003804AF6CD30834217D0314B1B78023B14
:10142000DBB20F2B08D82F490B68581C08601A70C4
:101430002B4A137801331370294B1B78122B0FD0D2
:10144000244B1A78244B1A7038BD2748034603F8FA
:10145000021B24490B6042700222214B1A70EBE7F9
:10146000214A11880BB2B2F902004340B2F90400DC
:101470004340B2F906004340B2F908004340B2F9D4
:101480000A004340B2F90C004340B2F90E20534029
:101490009BB24AF6CD3291420AD04FF0FF33172269
:1014A0001249134800F0F3FA00220D4B1A70C7E7F7
:1014B0000D4A128A9342F0D10E4B0B4A15685468BC
:1014C0009068D1681D605C609860D960128A1A8249
:1014D000EAE700BFC00100201C020020C20100207A
:1014E000A2000020A4000020A8000020682B000813
:1014F000D8010020C401002008B5FFF781FF0122B8
:101500000249034800F0DAFB08BD00BFC00100201B
:101510007C01002072B6FEE708B50A480A4B03605A
:101520004FF4E133436000238360C36003610C2206
:1015300042618361C36100F07BFA00B908BDFFF727
:10154000E9FF00BF7C0100200010014008B50A48F7
:101550000A4B03604FF4E133436000238360C360B0
:1015600003610C2242618361C36100F061FA00B93A
:1015700008BDFFF7CFFF00BFD801002000440040A6
:1015800000B595B03022002108A8FEF77BFE0023AD
:101590000393049305930693079301931F4A116CD9
:1015A00041F080511164126C02F080520192019A54
:1015B00002931B4A116841F480411160126802F4E1
:1015C00080420292029A0222089201210B9110217C
:1015D0000C910E920F9308231093A823119312924B
:1015E0000423139308A800F085FB98B90F230393F5
:1015F00002230493002305934FF4A05306934FF462
:1016000080530793052103A800F0C2FD20B915B04F
:101610005DF804FBFFF77EFFFFF77CFF0038024018
:101620000070004008B501F01FFAFFF7A9FFFFF7AF
:101630006DFEFFF7ABFEFFF76FFFFFF787FF01229D
:1016400019491A4800F03AFB4FF0FF3311221849AC
:10165000184800F01CFA4FF40051174800F064FFDE
:10166000322001F02DFA0A210020FFF7B1FE134AC3
:10167000134B1D685C689868D96815605460906069
:10168000D1601B8A13820F4CB2F90830B2F90620E0
:101690000D492046FEF766FE4FF0FF330A22214631
:1016A000044800F0F4F9D6E7C00100207C010020D6
:1016B000802B0008D80100200008024028020020EA
:1016C000C401002098000020942B0008FEE7FEE7EC
:1016D000FEE7FEE7FEE770477047704708B501F088
:1016E000DDF908BD08B5024801F042F808BD00BFA9
:1016F0001C01002008B5024801F03AF808BD00BFFF
:10170000BC00002082B0002100910B4B5A6C42F4C7
:1017100080425A645A6C02F480420092009A01910D
:101720001A6C42F080521A641B6C03F080530193D0
:10173000019B02B0704700BF0038024030B58BB04B
:101740000023059306930793089309930368414A7E
:10175000934204D0404A934259D00BB030BD044666
:10176000002501953D4B5A6C42F010025A645A6CA8
:1017700002F010020192019A02951A6B42F00202E5
:101780001A631B6B03F002030293029BC0230593B1
:1017900002230693032308930723099305A93048DE
:1017A00000F0CCFD2F48304B03604FF000634360E6
:1017B0008560C5604FF48063036145618561C561E3
:1017C0000562456200F036FFD8B9264BA3639C63DF
:1017D0002648274B03604FF000634360402383603B
:1017E0000023C3604FF48062026143618361C3617F
:1017F0000362436200F01EFF30B91C4B63639C63BD
:10180000ABE7FFF787FEE0E7FFF784FEF5E700218F
:101810000391124B1A6C42F400321A641A6C02F4EF
:1018200000320392039A04911A6B42F008021A6381
:101830001B6B03F008030493049B602305930223AE
:101840000693032308930723099305A9094800F089
:1018500075FD82E70010014000440040003802405E
:10186000000402401C01002040640240BC00002033
:10187000B8640240000C02400268D36823F0C00341
:10188000D360202380F83D3070470268D36823F48A
:101890009073D3600268536923F001035361036BB3
:1018A000012B05D0202380F83E30002303637047CE
:1018B0000268D36823F01003D360F3E7F8B5044659
:1018C0000268136923F44053C1680B4313618368B2
:1018D0000269134342691343C26913430168CA682A
:1018E00022F4164222F00C021343CB6002685369C3
:1018F00023F4407381690B4353610368314A934277
:1019000032D002F5806293422ED000F0F7FCE369FA
:10191000B3F5004F2BD025680021061841EB0107D5
:1019200036184F41FB0043EA5673F20016461F4635
:1019300063689A009B0F80197941FFF75FFB224C87
:10194000A4FB00325109642202FB1102130132335D
:10195000A4FB03235B0903F0F00202EB011203F086
:101960000F031344AB60F8BD00F0D8FCCFE7256847
:101970000021061841EB010736184F41FB0043EAEE
:101980005673F20016461F466268002392185B41A8
:1019900080197941FFF732FB0B4CA4FB003251094F
:1019A000642202FB1102D3003233A4FB03235B0940
:1019B0005A0002F4F87202EB011203F00703134419
:1019C000AB60F8BD001001401F85EB512DE9F041DF
:1019D00005460F4616469846069C2B681B6837EA54
:1019E00003030CBF01230023B3421ED1B4F1FF3F18
:1019F000F3D02CB101F05EF8A0EB08008442ECD2E9
:101A00002A68D36823F4D073D3602A68536923F01B
:101A100001035361202385F83D3085F83E300023D3
:101A200085F83C300320BDE8F0810020BDE8F0815E
:101A300058B310B5044690F83D300BB3242384F816
:101A40003D302268D36823F40053D3602046FFF76B
:101A500035FF2268136923F49043136122685369A8
:101A600023F02A0353612268D36843F40053D36000
:101A700000202064202384F83D3084F83E3010BDDF
:101A800080F83C30FFF75AFED8E7012070472DE977
:101A9000F04182B01E4690F83D30DBB2202B04D0DE
:101AA0000223184602B0BDE8F08104460D46904678
:101AB000002954D0002A54D090F83C30012B01D199
:101AC0000223EEE7012380F83C3000230364212346
:101AD00080F83D3000F0EEFF0746A4F82480A4F81B
:101AE0002680A368B3F5805F05D04FF0000800237F
:101AF00084F83C3012E0236913B14FF00008F6E798
:101B0000A8460025F3E7226838F8023BC3F3080330
:101B10005360E38C9BB2013B9BB2E384E38C9BB2AA
:101B200073B100963B46002280212046FFF74EFF0E
:101B3000C8B9002DE7D0236815F8012B5A60E8E7F3
:101B400000963B46002240212046FFF73FFF034618
:101B500008B10323A5E7202284F83D20A1E7012353
:101B60009FE701239DE703239BE77047704710B56C
:101B7000846B23685A6994F83D30DBB2212B10D076
:101B800023685A6902F0400294F83E30DBB2222BFF
:101B900011D0236C43F0100323642046FFF7E6FFC7
:101BA00010BD02F08002002AEAD00023E384204620
:101BB000FFF762FEE4E7002AEBD00023E38520462E
:101BC000FFF763FEE5E7704708B5806B036B012BF9
:101BD00002D0FFF7CAFF08BD818D4908FFF7F3FF68
:101BE00008BD08B5836B0268126812F4807F16D1B5
:101BF0000022DA851968CA6822F48072CA601968FE
:101C00004A6922F001024A6119684A6922F04002D9
:101C10004A61202283F83E201A6B012A06D01A6BF3
:101C2000012A09D01846FFF767FC08BD1968CA6881
:101C300022F01002CA60F2E7998D1846FFF7C3FF41
:101C400008BD000030B583B0044613468162A2850A
:101C500000250564222280F83E20826B1448D06360
:101C6000A26B14481064A26B1348D064A26B156574
:101C700020680A46011DA06B00F044FD0195236811
:101C80001A6801925A680192019A84F83C50DA6805
:101C900042F48072DA602268536943F001035361B1
:101CA0002268536943F040035361284603B030BDB6
:101CB000E31B0008C91B00086F1B000808B590F85B
:101CC0003E30DBB2202B01D0022008BD71B17AB1C9
:101CD00090F83C30012B01D1022008BD012380F88F
:101CE0003C3000230363FFF7ADFF08BD012008BDB2
:101CF000012008BD002800F0E98170B582B00446DB
:101D0000036813F0010F3BD0A74B9B6803F00C0353
:101D1000042B2CD0A44B9B6803F00C03082B21D080
:101D20006368B3F5803F4FD0B3F5A02F52D09E4BE0
:101D30001A6822F480321A601A6822F480221A602B
:101D40006368002B50D000F0B5FE0546964B1B682B
:101D500013F4003F14D100F0ADFE401B6428F5D908
:101D60000320B8E1904B5B6813F4800FD8D08E4B02
:101D70001B6813F4003F03D06368002B00F0A881B8
:101D8000236813F0020F55D0874B9B6813F00C0F9C
:101D90003ED0854B9B6803F00C03082B33D0E368DF
:101DA000002B68D00122814B1A6000F083FE0546AB
:101DB0007D4B1B6813F0020F54D100F07BFE401BDB
:101DC0000228F5D9032086E1774A136843F480336B
:101DD0001360B5E7744B1A6842F480221A601A68DF
:101DE00042F480321A60ABE700F064FE05466E4BA9
:101DF0001B6813F4003FC3D000F05CFE401B642856
:101E0000F5D9032067E1684B5B6813F4800FC6D1F6
:101E1000654B1B6813F0020F04D0E368012B01D05F
:101E2000012058E1604A136823F0F803216943EA6E
:101E3000C1031360236813F0080F40D0636963B3D4
:101E400001225B4B1A6000F035FE0546564B5B6F76
:101E500013F0020F33D100F02DFE401B0228F5D9FC
:101E6000032038E1504A136823F0F803216943EA5C
:101E7000C1031360DEE700224C4B1A6000F01AFE2B
:101E80000546494B1B6813F0020FD3D000F012FE39
:101E9000401B0228F5D903201DE10022444B1A60A3
:101EA00000F008FE0546404B5B6F13F0020F06D0B2
:101EB00000F000FE401B0228F5D903200BE1236847
:101EC00013F0040F79D0384B1B6C13F0805F33D1C3
:101ED00000230193344B1A6C42F080521A641B6C3D
:101EE00003F080530193019B0125324B1B6813F4CF
:101EF000807F23D0A368012B34D0052B38D02A4B08
:101F00001A6F22F001021A671A6F22F004021A6790
:101F1000A368002B36D000F0CDFD0646224B1B6F88
:101F200013F0020F48D100F0C5FD801B41F2883349
:101F30009842F3D90320CEE00025D6E71D4A136866
:101F400043F48073136000F0B5FD0646194B1B681F
:101F500013F4807FCED100F0ADFD801B0228F5D9AF
:101F60000320B8E0104A136F43F001031367CFE773
:101F70000D4B1A6F42F004021A671A6F42F0010209
:101F80001A67C5E700F096FD0646074B1B6F13F076
:101F9000020F11D000F08EFD801B41F28833984271
:101FA000F3D9032097E000BF003802400000474209
:101FB000800E474200700040EDB9A369002B00F08D
:101FC0008980484A926802F00C02082A51D0022BFC
:101FD00017D00022444B1A6000F06CFD0446414BC0
:101FE0001B6813F0007F42D000F064FD001B022844
:101FF000F5D903206FE03B4A136C23F08053136440
:10200000DBE70022384B1A6000F054FD0546354BE3
:102010001B6813F0007F06D000F04CFD401B022827
:10202000F5D9032057E0E369226A1343626A43EA61
:102030008213A26A5208013A43EA0243E26A43EA7F
:102040000263284A53600122274B1A6000F032FDD8
:102050000446244B1B6813F0007F06D100F02AFDD4
:10206000001B0228F5D9032035E0002033E00020D2
:1020700031E0012B31D01B4B5B6803F48001E26936
:10208000914201D0012026E003F03F02216A8A42FA
:1020900001D001201FE0616A47F6C0721A40B2EB1E
:1020A000811F01D0012016E003F44031A26A5208DA
:1020B000013AB1EB024F01D001200CE003F0706354
:1020C000E26AB3EB026F0AD0012004E001207047FE
:1020D000012000E0002002B070BD0120FBE70020DD
:1020E000F9E700BF0038024060004742F8B5254BD1
:1020F0009B6803F00C03042B41D0082B01D022482D
:10210000F8BD204B5A6802F03F025B6813F4800F61
:1021100012D01C4B5968C1F3881100231B48A1FB46
:102120000001FEF76BFF174B5B68C3F301430133FC
:102130005B00B0FBF3F0F8BD124B5B68C3F3881390
:102140001E4600275C010025E41A65EB0705A9017E
:1021500041EA9461A001001B61EB0501CB0043EA59
:102160005073C400A01943EB07018B0243EA90535C
:102170008402204619460023FEF740FFD3E70348B8
:10218000F8BD00BF003802400024F40040787D0113
:10219000002800F09E8070B50446504B1B6803F089
:1021A00007038B4209D2CBB24C4A1370136803F079
:1021B0000703994201D0012070BD236813F0020F7C
:1021C00017D013F0040F04D0454A936843F4E0534A
:1021D0009360236813F0080F04D0414A936843F4D6
:1021E000604393603E4A936823F0F003A068034382
:1021F00093600D46236813F0010F32D06368012B02
:1022000021D09A1E012A25D9354A126812F0020FF0
:1022100061D033498A6822F0030213438B6000F0D7
:1022200049FC06462E4B9B6803F00C036268B3EB37
:10223000820F16D000F03EFC801B41F2883398429A
:10224000F0D9032070BD264A126812F4003FE0D195
:10225000012070BD224A126812F0007FD9D10120FE
:1022600070BD1E4B1B6803F007039D4209D2EAB202
:102270001A4B1A701B6803F007039D4201D001201E
:1022800070BD236813F0040F06D0154A936823F439
:10229000E053E1680B439360236813F0080F07D005
:1022A0000F4A936823F46043216943EAC1039360B2
:1022B000FFF71CFF0A4B9B68C3F30313094AD35C67
:1022C000D840094B1860094B186800F0A7FB0020A4
:1022D00070BD01207047012070BD00BF003C02406E
:1022E00000380240A82B00086C0000206800002085
:1022F000014B1868704700BF6C00002008B5FFF75D
:10230000F7FF044B9B68C3F38223034AD35CD84096
:1023100008BD00BF00380240B82B000808B5FFF721
:10232000E7FF044B9B68C3F34233034AD35CD840B6
:1023300008BD00BF00380240B82B000800230F2B57
:1023400000F2E080F0B583B062E085684FEA430EAA
:10235000032707FA0EF725EA0705CE6806FA0EF6F8
:1023600035438560456825EA02024D68C5F30015CE
:102370009D402A43426057E0DD08083550F825208B
:1023800003F00706B6000F27B74022EA07020F69DD
:1023900007FA06F6324340F8252059E0072600E008
:1023A000002606FA0EF635430232574E46F8225002
:1023B000564A1568E24305EA02064F6817F4803F63
:1023C00001D044EA0506514D2E606D6802EA05060B
:1023D0004F6817F4003F01D044EA05064B4D6E608C
:1023E000AD6802EA05064F6817F4801F01D044EA81
:1023F0000506464DAE60ED682A404E6816F4001F93
:1024000001D044EA0502414CE26001330F2B77D83A
:1024100001229A400C681440A242F6D14D6805F0A2
:102420000305013D012D90D94A6802F00302032AF9
:1024300009D0C2685F000326BE4022EA06028D680A
:10244000BD402A43C2604A6802F00302022A93D0C8
:1024500002685F000326BE4022EA06024D6805F0CE
:102460000305BD402A4302604A6812F0805FCCD069
:1024700000220192264A556C45F480455564526C01
:1024800002F480420192019A9A08961C1E4D55F85A
:10249000265003F003064FEA860E0F2606FA0EF6C4
:1024A00025EA06051B4FB8423FF47AAF1A4EB042F8
:1024B0001AD006F58066B04218D006F58066B042A4
:1024C00016D006F58066B04214D006F58066B0429C
:1024D00012D006F58066B04210D006F58066B04294
:1024E0003FF45CAF08265CE701265AE7022658E76E
:1024F000032656E7042654E7052652E7062650E74A
:1025000003B0F0BD704700BF00380140003C0140FF
:1025100000380240000002400004024012B90904E1
:102520008161704781617047436903EA010221EAD2
:10253000030141EA02418161704730B405682C68AB
:1025400024F480242C60046863608368402B05D0E9
:10255000036899600368DA6030BC704703689A606A
:102560000368D960F8E700000268D3B2103B0B495A
:10257000A1FB03131B090A49C95CC165032B06D8DB
:1025800022F47F7222F003028265806D704722F48C
:102590007F7222F0030204328265F6E7ABAAAAAA90
:1025A000A02B0008836A826992B9012B0AD01BB163
:1025B000022B01D000207047C36A13F0807F2CD11A
:1025C00000207047C36AB3F1C07F28D00020704755
:1025D000B2F5005F05D0022B29D9032B15D00020BE
:1025E0007047032B03D8DFE803F01C041C0A00200B
:1025F0007047C36A13F0807F15D100207047C36A0B
:10260000B3F1C07F11D000207047C36A13F0807F00
:1026100001D0012070470020704701207047012041
:10262000704701207047012070470120704701204A
:102630007047000070B5044600F03CFA002C5DD0F5
:102640000546002384F83430022384F835302268AC
:10265000136823F00103136023681A6812F0010F56
:102660000AD000F027FA401B0528F5D9202363651E
:10267000032084F8350070BD1A6821491140626852
:10268000A0680243E0680243206902436069024394
:10269000A0690243E0690243206A02430A43616A77
:1026A000042916D01A602668756925F00705636A43
:1026B0001D43042B12D075612046FFF755FFE26DD4
:1026C0003F239340836000206065012384F8353008
:1026D00070BDE16A206B01430A43E3E7A36A1D432F
:1026E000E36A002BE7D02046FFF75CFF0028E2D02A
:1026F00040236365012084F8350070BD012070BD62
:102700003F8010F038B5856D90F83440012C2CD006
:10271000012480F8344090F83540E4B2012C04D014
:10272000002380F83430022038BD0446022084F8AB
:102730003500002060652046FFF7FFFEE26D3F2375
:102740009340AB602268136843F016031360236C58
:1027500023B12268136843F00803136022681368EA
:1027600043F001031360002038BD022038BD000093
:10277000F0B583B0044600230193724B1D68724B81
:10278000A3FB0535AD0A876D3E68C26D08239340F3
:102790001E4210D003681A6812F0040F0BD01A689A
:1027A00022F004021A60C26D08239340BB60436D9F
:1027B00043F001034365E26D012393401E4209D0BB
:1027C0002268526912F0800F04D0BB60636D43F041
:1027D00002036365E26D042393401E4209D0226820
:1027E000126812F0020F04D0BB60636D43F0040363
:1027F0006365E26D102393401E4224D02268126864
:1028000012F0080F1FD0BB6023681A6812F4802FE3
:102810000DD01B6813F4002F04D1236C9BB120460C
:10282000984710E0A36C73B1204698470BE01A68F4
:1028300012F4807F03D11A6822F008021A60236C18
:102840000BB120469847E26D202393401E4255D09D
:102850002268126812F0100F50D0BB6094F8353027
:10286000DBB2052B0ED023681A6812F4802F33D008
:102870001B6813F4002F2AD1636C002B3ED0204636
:1028800098473BE02268136823F016031360226820
:10289000536923F080035361236CA3B1226813684A
:1028A00023F008031360E26D3F239340BB600023D5
:1028B00084F83430012384F83530236D002B3FD069
:1028C000204698473CE0A36C002BE7D1EBE7E36B95
:1028D000A3B12046984711E01A6812F4807F09D10D
:1028E0001A6822F010021A60002384F834300123A1
:1028F00084F83530E36B0BB120469847636DFBB12C
:10290000636D13F0010F17D0052384F8353022686A
:10291000136823F001031360019B013301939D426F
:1029200004D323681B6813F0010FF5D1002384F84A
:102930003430012384F83530E36C0BB120469847DE
:1029400003B0F0BD6C000020B5814E1B074AD36870
:1029500023F4E0631B041B0C000200F4E060184346
:1029600040F0BF6040F40030D060704700ED00E000
:1029700030B4164BDB68C3F30223C3F10704042C05
:1029800028BF04241D1D062D17D9033B012505FA78
:1029900004F4013C2140994005FA03F3013B134044
:1029A000194300280BDB0901C9B200F1604000F5B2
:1029B000614080F8001330BC70470023E6E700F068
:1029C0000F000901C9B2024B1954F4E700ED00E011
:1029D00014ED00E0002808DB420900F01F0001238D
:1029E00003FA00F0014B43F82200704700E100E0D9
:1029F0000138B0F1807F0AD2064B5860F021064AB8
:102A000082F823100020986007221A607047012086
:102A1000704700BF10E000E000ED00E010B5044694
:102A20000E4B18784FF47A73B3FBF0F30C4A10682E
:102A3000B0FBF3F0FFF7DCFF68B90F2C01D90120E0
:102A400010BD002221464FF0FF30FFF791FF054BEC
:102A50001C60002010BD012010BD00BF64000020DC
:102A60006C0000206800002008B50B4B1A6842F487
:102A700000721A601A6842F480621A601A6842F49E
:102A800080721A600320FFF761FF0020FFF7C6FF86
:102A9000FEF738FE002008BD003C0240034A1168E2
:102AA000034B1B780B441360704700BF3C020020AF
:102AB00064000020014B1868704700BF3C020020F2
:102AC00038B50446FFF7F6FF0546B4F1FF3F02D0E4
:102AD000044B1B781C44FFF7EDFF401B8442FAD8DF
:102AE00038BD00BF64000020034AD2F8883043F4A8
:102AF0007003C2F88830704700ED00E0DFF834D092
:102B00000D480E490E4A002302E0D458C450043345
:102B1000C4188C42F9D30B4A0B4C002301E013601C
:102B20000432A242FBD3FFF7DFFFFDF783FBFEF782
:102B300079FD704700000220000000207000002096
:102B4000102C00087000002044020020FEE7000066
:102B5000F8B500BFF8BC08BC9E467047F8B500BF8A
:082B6000F8BC08BC9E4670475A
:102B68004E6F6E2D76616C696420646174612073A8
:102B78006B69707065640000526563656976696E9B
:102B88006720446174610D0A0000000025642C2050
:102B980025640D0A00000000000610160006101635
:102BA80000000000000000000102030406070809F5
:102BB800000000000102030443000000232D302B15
:102BC80020000000686C4C006566674546470000B9
:102BD800303132333435363738394142434445464B
:102BE800000000003031323334353637383961620D
:082BF800636465660000000043
:082C00002CE4FF7F010000003D
:042C0800FD010008C2
:042C0C00D5010008E6
:102C10000400002000000000000000000000000090
:102C200000000000000000000000000000000000A4
:102C300000000000C02B00080000000000000000A1
:102C40000000000000000000000000000000000084
:102C50000000000000000000000000000000000074
:102C60000000000000000000000000000000000064
:102C70000000000001000000100000000024F4002B
:0400000508002AFDC8
:00000001FF
